:100000000C94F7000C941F010C941F010C94F6043F
:100010000C94F6040C94F6040C941F010C941F012C
:100020000C941F010C941F010C941F010C941F01D0
:100030000C941F010C941F010C941F010C941F01C0
:100040000C94E50F0C941F010C94C10E0C949B0EA4
:100050000C941F010C941F010C941F010C941F01A0
:100060000C94AA030C941F01101F131F6A1FB71FC3
:100070001F206220E0206221AB2120228F22E22675
:10008000E22607270727071DFD261D271D271D27F9
:100090001D271D271D271D271D27E2260727281D91
:1000A000281D81278127BA27F827631D631D631D3B
:1000B000631D631D631D631D631D08285B28537545
:1000C0006D61207679726F627900756B6C61646125
:1000D0006D2E2E2E0020202A4E4153544156454E5F
:1000E000492A202020002000546F7661726E69201A
:1000F0005245534554004D61782E20686F646E6FF1
:10010000747900506F6473766963656E69204C433F
:1001100044004B6F6D756E696B616365004B616C7C
:100120006962726163652041004B616C6962726152
:1001300063652056004944206D656E6963652F61D3
:10014000647265736100506572696F6461207465E3
:10015000737475205641004D61782E76796B6F6E01
:10016000004D61782E7465706C6F7461004578691C
:1001700074006D01610157014601350129011D011E
:1001800012010301F600E800E600D500CA00BE0037
:1001900000000000240027002A00000000080002E0
:1001A0000100000304070000000000000000000040
:1001B0000000250028002B0000000000230026007E
:1001C00029000404040404040404020202020202DA
:1001D000030303030303010204081020408001020B
:1001E000040810200102040810208C288228112401
:1001F0001FBECFEFD8E0DEBFCDBF12E0A0E0B1E080
:10020000E6E1FCE502C005900D92A83EB107D9F7E2
:1002100025E0A8EEB2E001C01D92A53CB207E1F7CF
:1002200010E0C6EFD0E004C02197FE010E94AB2C85
:10023000C53FD107C9F70E94AD130C94FE2D0C9455
:1002400000000895089585ED8093BC008091BC0066
:1002500084FDFCCF10926E04089540911804262F5F
:1002600030E0240F311D21323105DCF420916E0481
:100270002430C9F4FC0180E090E0861758F43091F6
:1002800018042191DC01AA50BC4FA30FB11D2C937F
:100290000196F3CF80911804680F6093180480E0F2
:1002A000089581E0089582E00895089581E090E046
:1002B0003091E9022091E802321710F480E090E0DA
:1002C00091958195910908958091E9029091E802B4
:1002D000891730F48F5F8093E90280E090E0089501
:1002E0008FEF9FEF08958091E80290E02091E9025E
:1002F000821B91090895CF92DF92EF92FF920F93A4
:100300001F93CF93DF937C01262F972F8A01809133
:100310006F04882391F0C62FD72F6E01C40ED51E0F
:10032000CC15DD0571F06991D701ED91FC9101903B
:10033000F081E02DC7010995F3CF642F822F0E9431
:100340002D01C801DF91CF911F910F91FF90EF9088
:10035000DF90CF900895CF93DF931F92CDB7DEB794
:10036000698320916F042223D1F0209192042032DE
:1003700040F021E030E0FC013383228380E090E014
:1003800015C080917004E82FF0E0EF58FB4F998181
:1003900090838F5F809370048093920405C061E026
:1003A000CE0101960E942D0181E090E00F90DF9137
:1003B000CF9108952091950430919604281739071C
:1003C00071F49091930480919404981741F0E09116
:1003D0009304F0E0EA54FC4F808190E008958FEFA1
:1003E0009FEF089508951F93CF93DF93DC015C96F0
:1003F0002D913C915D972115310539F481E090E014
:1004000013969C938E9312973DC05196ED91FC915B
:10041000529750969C915097892F80951FB75E9662
:100420004C915E9741FB772770F941FD6095F894F8
:100430004081772311F0492B01C048234083E90113
:100440002197F1F748E0508160FF02C0592B01C0AD
:1004500058235083E9012197F1F76695415099F7A8
:10046000772321F090818923808303C08081982B9A
:1004700090831FBF5C968D919C915D970197F1F7DA
:1004800021E030E0C901DF91CF911F9108952091C3
:100490009504309196042817390771F480919404DB
:1004A0002091930490E0805C9F4F821B910960E44F
:1004B00070E00E94972C089580E090E008952091CC
:1004C00095043091960428173907B9F49091930454
:1004D00080919404981789F0E0919304F0E0EA5435
:1004E000FC4F80812091930430E02F5F3F4F2F73AA
:1004F00033272093930490E008958FEF9FEF0895A2
:10050000089580E090E008950F931F93CF93DF93B9
:10051000EC01423018F08C8188608C834F836887AF
:10052000222329F0413019F48C8184608C8364E6A5
:1005300070E080E090E00E949F0F6C8164FD31C00C
:10054000E881F9810684F785E02D42E063E0CE0181
:1005500009958BE496E40197F1F7E881F981068427
:10056000F785E02D42E063E0CE01099503E512E056
:10057000C8010197F1F7E881F9810684F785E02D3C
:1005800042E063E0CE010995C8010197F1F7E881E7
:10059000F9810684F785E02D42E062E0CE010995FD
:1005A00017C06062CE010E942F108BE496E4019781
:1005B000F1F76C816062CE010E942F1003E512E01A
:1005C000C8010197F1F76C816062CE010E942F1083
:1005D000C8010197F1F76C816062CE010E942F1073
:1005E0008BEE90E00197F1F784E08D836CE0CE0113
:1005F0000E942F10CE010E946F1082E08E8366E071
:10060000CE010E942F10E881F9810484F585E02D48
:100610006FEFCE01DF91CF911F910F9109944F920F
:100620005F926F927F928F929F92AF92BF92CF9282
:10063000DF92EF92FF92C090AA03D090AB03E090BC
:10064000AC03F090AD03BC01990F880B990B0E948D
:10065000D62A4B015C0120E030EC4FE754E4C7019F
:10066000B6010E942C2A9B01AC01C501B4010E9475
:100670008B2B4B015C0120E030E849E055E40E94FF
:100680008B2B2B013C01A5019401C701B6010E94EF
:10069000BA299B01AC01C301B2010E942C2A9B0123
:1006A000AC0160E070E08AEF94E40E94BA2921EA8C
:1006B00034E849E15EE30E948B2B9B01AC0160EEC4
:1006C0007FEF87E793E40E94BA290E94222C2FEC47
:1006D00037EF4BE751E40E94BA2921EA34E849E9AF
:1006E0005DE30E942C2A20E030E048EC51E40E94B7
:1006F000BB29FF90EF90DF90CF90BF90AF909F907D
:100700008F907F906F905F904F900895FC012381B0
:100710002223B9F09181909569236083828191E0D1
:1007200090936F048093910410927004109292043D
:1007300084E395E00E94AB010E943312282F30E041
:1007400002C020E030E081E090E0232B11F080E057
:1007500090E008951F920F920FB60F9211242F93DD
:100760003F934F935F936F937F938F939F93AF9339
:10077000BF93EF93FF938091B900887F803609F48F
:100780009CC068F5883209F45BC090F4803109F4AC
:1007900054C038F4882309F4F6C0883009F44DC0F9
:1007A000F6C0883109F44CC0803209F45DC0EFC056
:1007B000803409F468C048F4803309F455C08833A4
:1007C00009F0E5C080936C04D8C0803509F44FC0AF
:1007D000883509F45DC0883409F0D9C0D6C088399D
:1007E00009F4C7C0A8F4883709F467C038F488361C
:1007F00009F463C0803709F460C0C9C0883809F4BF
:10080000B8C0803909F45FC0803809F0C0C05BC04F
:10081000803B09F486C038F4803A09F466C0883A0F
:1008200009F47FC0B4C0803C09F4A7C0883C09F437
:10083000A4C0883B09F48AC0AAC08091490410C0B2
:1008400090916B0480916A04981770F5E0916B04A5
:1008500081E08E0F80936B04F0E0E65BFB4F8081BC
:100860008093BB0085EC86C080936C048EC0E091C1
:100870006B0481E08E0F80936B048091BB00F0E0ED
:10088000E65BFB4F808390916B0480916A046EC09D
:10089000E0916B0481E08E0F80936B048091BB002C
:1008A000F0E0E65BFB4F808380916D0481116DC0A9
:1008B00081E08093480484EA61C083E080936E0401
:1008C00010923C04CFCF80913C04803208F051C09C
:1008D000E0913C0481E08E0F80933C048091BB004A
:1008E000F0E0E45EFB4F8083BDCF85EC8093BC00DD
:1008F00010926E0480913C04803230F4E0913C040C
:10090000F0E0E45EFB4F108260913C0470E0E09107
:100910001A04F0911B048CE194E0099510923C04B8
:1009200036C084E080936E0410921904109218046B
:10093000E0911604F0911704099580911804811133
:1009400005C081E0809318041092F603E091190429
:1009500081E08E0F80931904F0E0EA50FC4F808113
:100960008093BB009091190480911804981708F4A3
:1009700079CF85E88093BC000AC085EC8093BC00E9
:1009800010926E0404C010926C040E942301FF9127
:10099000EF91BF91AF919F918F917F916F915F91F7
:1009A0004F913F912F910F900FBE0F901F90189570
:1009B00010926E0481E080936D041092480461E00F
:1009C00082E10E941C0F61E083E10E941C0FE9EBB1
:1009D000F0E080818E7F808380818D7F808388E4BA
:1009E0008093B80085E48093BC0008951F920F9215
:1009F0000FB60F9211242F933F934F935F936F93F2
:100A00007F938F939F93AF93BF93EF93FF93E09167
:100A10009504F0919604309709F451C0968DA685FF
:100A2000B785858591FF04C09C91892329F447C02F
:100A30009C91892309F043C0A389B4899C9185893D
:100A4000809589238C93868997890197F1F7608D2A
:100A5000718DA685B785558538E020E0CB010197DB
:100A6000F1F7822F90E095958795282F4C9145239B
:100A700009F02068315091F7868D81FD2095809195
:100A8000940490E001968F7399273091930438175E
:100A900049F0A0919404B0E0AA54BC4F2C938093E9
:100AA000940403C0868D8160868F828D938D01971B
:100AB000F1F7A389B4899C918589892B8C93FF9147
:100AC000EF91BF91AF919F918F917F916F915F91C6
:100AD0004F913F912F910F900FBE0F901F9018953F
:100AE000E0919504F0919604E817F90769F4A38959
:100AF000B4899C918589809589238C931092960462
:100B00001092950481E0089580E008950F931F935B
:100B1000CF93DF938C01EB010E9468298883C80181
:100B200001960E946829898382E090E0DF91CF914D
:100B30001F910F910895EF92FF920F931F93CF9300
:100B4000DF937C018B01C0E0D0E0F80161918F015F
:100B5000CE018E0D9F1D0E9470292196C430D105B3
:100B6000A1F784E090E0DF91CF911F910F91FF906A
:100B7000EF9008950F931F93CF93DF93EC018B01B8
:100B8000FB0160810E947029F8016181CE0101960C
:100B90000E94702982E090E0DF91CF911F910F9128
:100BA0000895EF92FF920F931F93CF93DF938B01E2
:100BB0000C5F1F4FEB017C01E61AF70AC7018C0F8F
:100BC0009D1F0E9468298993C017D107B9F784E057
:100BD00090E0DF91CF911F910F91FF90EF900895DA
:100BE000CF93DF93A89581E10E94880FEC016AE022
:100BF00070E080E090E00E949F0F81E10E94880FEA
:100C00009E01281B390BC90137FF03C091958195BF
:100C100091090C97F4F4CE01875C924089359105D7
:100C200010F482E301C08CE39E0129553240233643
:100C3000310508F48EE19E012159314025393105F5
:100C400008F488E2C35DD109C935D10518F484E1FF
:100C500001C08CE3DF91CF910895CF93DF93CDB79F
:100C6000DEB765970FB6F894DEBF0FBECDBF880F15
:100C7000991FFC01EE58FE4F65917491CE010196CB
:100C80000E946129BE016F5F7F4F80914604909161
:100C900047040E94990E68E270E080E090E00E94B4
:100CA0009F0F65960FB6F894DEBF0FBECDBFDF91E4
:100CB000CF91089580914604909147040E946F104F
:100CC00060E08DE090E00E94C61264EF71E080E089
:100CD00090E00E949F0F10920D030895CF92DF9233
:100CE000EF92FF9280914604909147040E946F100A
:100CF0008EE090E00E942D0641E060E08091460485
:100D0000909147040E9437108091EA029091EB0283
:100D1000A091EC02B091ED0280389649A849B10546
:100D200040F46AE572E080914604909147040E9485
:100D3000990E8091EA029091EB02A091EC02B091A1
:100D4000ED0280349244AF40B10540F46AE572E0B0
:100D500080914604909147040E94990E8091EA0286
:100D60009091EB02A091EC02B091ED02803A96488E
:100D7000A140B10540F46AE572E08091460490918B
:100D800047040E94990E8091EA029091EB02A09193
:100D9000EC02B091ED0280319742A105B10540F41B
:100DA0006AE572E080914604909147040E94990E92
:100DB0006091EA027091EB028091EC029091ED0259
:100DC00028EEC22E23E0D22EE12CF12CA7019601B1
:100DD0000E948929BA01A9012AE0809146049091D4
:100DE00047040E94500E61E772E0809146049091A2
:100DF00047040E94990E6091EA027091EB02809183
:100E0000EC029091ED02A70196010E94892924E647
:100E100030E040E050E00E948929BA01A9012AE0AF
:100E200080914604909147040E94500E6BEB72E053
:100E300080914604909147040E94990E8091460447
:100E400090914704FC016581262F2160258369600C
:100E5000FF90EF90DF90CF900C942F10CF92DF9205
:100E6000EF92FF92CF93DF930E94D90F6093130309
:100E7000709314038093150390931603C090090395
:100E8000D0900A03E0900B03F0900C0320E1C20E17
:100E900027E2D21EE11CF11CC616D706E806F906A9
:100EA00010F410921703809117038111E9C0C090CC
:100EB000B203D090B303E090B403F090B5030E9466
:100EC000D90F6C157D058E059F0568F4A701960165
:100ED000261B370B480B590BDA01C90180959095F9
:100EE000A095B09506C0DC01CB018C199D09AE0917
:100EF000BF098C329140A105B10508F4C1C00E9420
:100F0000D90F6093B2037093B3038093B4039093AB
:100F1000B503C090F302D090F402E090F502F09097
:100F2000F60220E030E0A901C701B6010E94272A9D
:100F3000811103C088E190E01FC0609108017091A9
:100F40000901072E000C880B990B0E94D62A9B01E1
:100F5000AC01C701B6010E94862B87FD1BC08091A2
:100F60001801909119010497909319018093180129
:100F700005974CF485E090E0909319018093180157
:100F800081E090E002C082E090E0909317018093AE
:100F9000160176C08091160190911701813091055C
:100FA00019F0029771F164C02091AE033091AF0344
:100FB0004091B0035091B103C701B6010E94862B46
:100FC000209118013091190187FD0EC02D5F3F4F10
:100FD000283F31058CF087EF90E0909319018093C2
:100FE000180182E090E034C082E090E09093170115
:100FF0008093160122503109309319012093180172
:1010000037C02091AE033091AF034091B0035091AF
:10101000B103C701B6010E94862BC0911801D0917F
:10102000190187FD1AC020E030E0A901C701B6010F
:101030000E94862B18168CF42297C530D105A4F493
:1010400085E090E0909319018093180181E090E091
:1010500090931701809316010BC081E090E090936C
:101060001701809316012396D0931901C09318019C
:10107000C092AE03D092AF03E092B003F092B103FE
:10108000DF91CF91FF90EF90DF90CF9008954F9236
:101090005F926F927F928F929F92AF92BF92CF9208
:1010A000DF92EF92FF920F931F93CF93DF9300D0C5
:1010B00000D0CDB7DEB7A89588E893E19093A90357
:1010C0008093A80380E090E0A0EAB0E48093AA03B4
:1010D0009093AB03A093AC03B093AD0308EC10E086
:1010E000412C512C3201C12CD12C7601812C912C18
:1010F00054018FE00E94880F092E000CAA0BBB0B35
:10110000C80ED91EEA1EFB1E80E10E94880F092E20
:10111000000CAA0BBB0B880E991EAA1EBB1E8EE0EC
:101120000E94880F092E000CAA0BBB0B480E591EFB
:101130006A1E7B1E01501109E1F6C501B40128ECBD
:1011400030E040E050E00E94892949015A01309383
:10115000A7032093A603C301B20128EC30E040E0CE
:1011600050E00E94892929013A018901C701B6018D
:101170000E94D42A20E030E048E453E40E942C2A64
:101180002AE137E64CE950E40E948B2B20E030E462
:101190004CE155E40E94BA296B017C018091FD026B
:1011A0009091FE022AE0289FB001299F700D112422
:1011B000072E000C880B990B0E94D62A9B01AC01CC
:1011C000C701B6010E94BB290E94F82B0E949E2AEB
:1011D0006A3071052CF07093F8026093F70204C036
:1011E0001092F8021092F7028091F7029091F802A3
:1011F000803B944024F081E08093A50302C01092CC
:10120000A5038BE00E94F30E892B19F481E08093F3
:1012100018036091F7027091F802072E000C880BFA
:10122000990B0E94D62A6B017C01B401990C880BA2
:10123000990B0E94D62A20E030E040EA50E40E9458
:101240008B2B20E030EC4FE754E40E942C2A21E461
:101250003AEE40E45CE30E942C2A4B015C0120E062
:1012600030E048EC52E40E942C2A69837A838B8315
:101270009C838091FB029091FC026AE070E00E94E6
:10128000972C072E000C880B990B0E94D62A9B01E5
:10129000AC0169817A818B819C810E948B2B9B019F
:1012A000AC01C501B4010E94BB294B015C010E9445
:1012B000F82B0E949E2A7093FA026093F902A7010C
:1012C0009601C501B4010E948B2B20E030E048EC70
:1012D00052E40E942C2A6093F3027093F4028093EC
:1012E000F5029093F6026FEB72E087E994E00E94BA
:1012F000990EC501B4010E94DC1266EC72E087E928
:1013000094E00E94990EC701B6010E94DC1266ECBF
:1013100072E087E994E00E94990E6091F302709167
:10132000F4028091F5029091F6020E94DC1266ECC4
:1013300072E087E994E00E94990E60911801709123
:10134000190187E994E00E94901266EC72E087E947
:1013500094E00E94990E6AEC72E087E994E00E94A2
:101360003B0E68EC72E087E994E00E943B0E8091AE
:10137000F9029091FA022091030330910403281797
:10138000390754F4909304038093030363E073E0FC
:1013900086E190E00E94BA058091F7029091F802F0
:1013A00020910103309102032817390754F49093D8
:1013B00002038093010361E073E088E190E00E9402
:1013C000BA05C090F302D090F402E090F502F090DC
:1013D000F6028091FF0290910003BC01990F880BE7
:1013E000990B0E94D62A9B01AC01C701B6010E944D
:1013F000862B181674F4C701B6010E949E2A7093BA
:1014000000036093FF026FEF72E08AE190E00E94B8
:10141000BA053DEF431633E053066104710410F042
:1014200005EB11E0C0901903D0901A03E0901B0364
:10143000F0901C0320E030E0A901C701B6010E9432
:10144000272A811104C0C8010E940F031DC0C801D2
:101450000E940F034B015C012DE439EB4EE75FE383
:10146000C701B6010E948B2B6B017C0126E939E58F
:1014700043EA5BE3C501B4010E948B2B9B01AC01E5
:10148000C701B6010E94BB296093190370931A0328
:1014900080931B0390931C03C090A103D090A203E0
:1014A000E090A303F090A4030E94D90F6093A103DE
:1014B0007093A2038093A3039093A4036C197D09F6
:1014C0008E099F090E94D42A20E03AEB4BE55AE4AA
:1014D0000E942C2A2091F3023091F4024091F502EF
:1014E0005091F6020E948B2B20919D0330919E0318
:1014F00040919F035091A0030E94BB296B017C0186
:1015000020E030E040E85FE30E94862B18164CF0A4
:10151000C0929D03D0929E03E0929F03F092A0039D
:101520003CC020E030E040E85FE3C701B6010E9424
:10153000BA2960939D0370939E0380939F039093B9
:10154000A00380910E0390910F03A0911003B0911E
:1015500011030196A11DB11D8115E1EE9E07E5EF76
:10156000AE07E5E0BE0748F480930E0390930F03A7
:10157000A0931003B093110310C010920E031092A9
:101580000F0310921003109211031092EF021092A9
:10159000F0021092F1021092F20280910E039091EB
:1015A0000F03A0911003B09111034091EF025091ED
:1015B000F0026091F1027091F2028C019D01041B16
:1015C000150B260B370B043611052105310558F094
:1015D00021E0209312038093EF029093F002A093F6
:1015E000F102B093F2020F900F900F900F90DF91E5
:1015F000CF911F910F91FF90EF90DF90CF90BF9010
:10160000AF909F908F907F906F905F904F900895D4
:101610000F931F938C018091A503882369F10951D1
:1016200011090530110514F405E010E010931901BB
:101630000093180182E090E09093170180931601C7
:1016400080914604909147040E946F1040E060E052
:1016500080914604909147040E9437106BEC72E031
:1016600080914604909147040E94990E083F11050D
:1016700054F007EF10E007C0083F1105D4F717FF3B
:1016800002C000E010E0F89483E18093810084ECD4
:1016900099E0909387008093860025E0209FC00109
:1016A000219F900D112490938900809388002BEF47
:1016B0002003C001219F900D11248C53964F9093CD
:1016C0008B0080938A0084B1866084B980EB80931C
:1016D000800078941F910F9108958F929F92AF92FE
:1016E000BF92EF92FF920F931F93CF93DF9301E08E
:1016F00085E2F82ECAE0D0E099E1E92E0E94F005DB
:10170000182F6CE370E080E090E00E949F0F84E06F
:101710000E94F30E892BE9F460911A0170911B016C
:10172000072E000C880B990B0E94D62A9B01AC0156
:101730006091190370911A0380911B0390911C030F
:101740000E94862B87FF05C08091EE02882309F452
:1017500048C01092190110921801809118019091BF
:1017600019010E94080B00936F04F09291041092EB
:101770007004109292046091100184E395E00E943D
:10178000AB010E94331280911001909111019E01D2
:10179000281B390BE29EC001E39E900D1124059693
:1017A0000E94D9110E94D90F8090050390900603E2
:1017B000A0900703B090080320E1820E27E2921E5A
:1017C000A11CB11C86169706A806B90618F410923B
:1017D0000D030CC01C3351F480910D0381118ECF89
:1017E00005C00E9447080E942E07B7CF0E94D90F5C
:1017F0006093050370930603809307039093080397
:1018000060E570E080E090E00E949F0F812FDF9103
:10181000CF911F910F91FF90EF90BF90AF909F904D
:101820008F900895CF92DF92EF92FF920F931F93C4
:10183000CF93DF936C017A018B01C0E0D0E0CE152D
:10184000DF0589F0D8016D918D01D601ED91FC91F4
:101850000190F081E02DC6010995892B11F47E01DC
:1018600002C02196ECCFC701DF91CF911F910F915C
:10187000FF90EF90DF90CF900895FC01538D448D41
:10188000252F30E0842F90E0821B930B541710F02B
:10189000CF96089501970895FC01918D828D981738
:1018A00061F0828DDF01A80FB11D5D968C91928D44
:1018B0009F5F9F73928F90E008958FEF9FEF089541
:1018C000FC01918D828D981731F0828DE80FF11D0A
:1018D000858D90E008958FEF9FEF0895FC01918D25
:1018E000228D892F90E0805C9F4F821B91098F731E
:1018F0009927089587E994E00E946E0C21E0892BD6
:1019000009F420E0822F0895FC01848DDF01A80FE7
:10191000B11DA35ABF4F2C91848D90E001968F7317
:101920009927848FA689B7892C93A089B1898C9136
:1019300080648C93938D848D981306C00288F389FC
:10194000E02D80818F7D80830895EF92FF920F9329
:101950001F93CF93DF93EC0181E0888F9B8D8C8D5B
:10196000981305C0E889F989808185FD24C0F62E89
:101970000B8D10E00F5F1F4F0F731127E02E8C8D22
:10198000E8120CC00FB607FCFACFE889F98980810C
:1019900085FFF5CFCE010E94840CF1CF8B8DFE0127
:1019A000E80FF11DE35AFF4FF0820B8FEA89FB89A4
:1019B0008081806207C0EE89FF896083E889F989A8
:1019C00080818064808381E090E0DF91CF911F91DE
:1019D0000F91FF90EF900895CF93DF93EC01888DE6
:1019E0008823C9F0EA89FB89808185FD05C0A88923
:1019F000B9898C9186FD0FC00FB607FCF5CF8081A9
:101A000085FFF2CFA889B9898C9185FFEDCFCE01F2
:101A10000E94840CE7CFDF91CF91089580E090E0A1
:101A2000892B29F00E947A0C81110C9400000895F2
:101A3000833081F028F4813099F08230A1F008954C
:101A40008730A9F08830B9F08430D1F480918000DB
:101A50008F7D03C0809180008F77809380000895F0
:101A600084B58F7702C084B58F7D84BD0895809141
:101A7000B0008F7703C08091B0008F7D8093B0005D
:101A800008953FB7F8948091420490914304A09147
:101A90004404B091450426B5A89B05C02F3F19F01A
:101AA0000196A11DB11D3FBFBA2FA92F982F8827DE
:101AB000820F911DA11DB11DBC01CD0142E0660F39
:101AC000771F881F991F4A95D1F7089521E001C01B
:101AD000220F6A95EAF7DC011C962C931C971A9644
:101AE0005C934E931997ED91FC910484F585E02D5C
:101AF00060E00994DC01ED91FC910684F785E02D0E
:101B000041E0099581E090E008950E94F92DEF925F
:101B1000FF920F931F93CF938C01FC01759684E085
:101B2000C0E060FF02C09081C92B6695815031965C
:101B30008111F7CF413011F4F8014489F80185850E
:101B4000C82BC42B7801FEE0EF0EF11CF80162896E
:101B50006C2BC7010E948603F801628960956C2393
:101B6000C701CF911F910F91FF90EF900C948603C6
:101B70000F931F93CF93DF93062F0F70423019F40A
:101B800040E0602F10C0142F262FEC0130E0B90187
:101B900084E0759567958A95E1F7CE010E94870DDF
:101BA000412F602FCE01DF91CF911F910F910C94A7
:101BB000870DFC0184858823A9F0218532852115B4
:101BC000310519F4611106C007C02130310521F437
:101BD000611102C0858701C015866585CF010E960B
:101BE0000C9486030895FF920F931F93CF93DF9376
:101BF000EC01162F042FF22E8B85888B1092E902B0
:101C00001092E80210927004109292040E94D8047C
:101C1000888991E090936F048093910410927004EE
:101C2000109292040E94331291E0811190E0998BFE
:101C3000992329F084E395E00E9464018E878989C5
:101C4000882339F01F861C8260E0CE010E960E9428
:101C500086032F2D402F612FCE01DF91CF911F9151
:101C60000F91FF900C948402DC01ED91FC910190A6
:101C7000F081E02D09946115710579F0FB01019067
:101C80000020E9F73197AF01461B570BDC01ED91BE
:101C9000FC910280F381E02D099480E090E00895AA
:101CA0004F925F926F927F92EF92FF920F931F93EA
:101CB000CF93DF93CDB7DEB7A1970FB6F894DEBF11
:101CC0000FBECDBF7C01FA01CB0119A2223008F46E
:101CD0002AE08E010F5D1F4F422E512C612C712C7A
:101CE000BF01A30192010E948929F901CA01015093
:101CF00011096A3014F4605D01C0695CD8016C930D
:101D0000232B242B252B61F7B801C7010E943B0E22
:101D1000A1960FB6F894DEBF0FBECDBFDF91CF9175
:101D20001F910F91FF90EF907F906F905F904F9079
:101D300008950C943B0E1F920F920FB60F92112430
:101D40002F933F934F935F936F937F938F939F93C3
:101D5000AF93BF93EF93FF9387E994E00E94840CC5
:101D6000FF91EF91BF91AF919F918F917F916F9173
:101D70005F914F913F912F910F900FBE0F901F9049
:101D800018951F920F920FB60F9211242F938F93D5
:101D90009F93EF93FF93E091A704F091A8048081B3
:101DA000E091AD04F091AE0482FD12C0908180916B
:101DB000B0048F5F8F732091B104821751F0E091CE
:101DC000B004F0E0E956FB4F958F8093B00401C05A
:101DD0008081FF91EF919F918F912F910F900FBE76
:101DE0000F901F901895CF93DF93282F30E0F901C3
:101DF000E656FE4F8491F901EA52FE4FD491F90163
:101E0000EE53FE4FC491CC2391F081110E94180D26
:101E1000EC2FF0E0EE0FFF1FE854FE4FA591B491B8
:101E2000EC91ED2381E090E021F480E002C080E0BD
:101E300090E0DF91CF9108951F93CF93DF93282FE8
:101E400030E0F901E656FE4F8491F901EA52FE4F67
:101E5000D491F901EE53FE4FC491CC23C9F0162F53
:101E600081110E94180DEC2FF0E0EE0FFF1FE255DC
:101E7000FE4FA591B4918FB7F894111105C09C91B4
:101E8000ED2FE095E92302C0EC91ED2BEC938FBF91
:101E9000DF91CF911F910895CF93DF9390E0FC01E4
:101EA000EA52FE4F2491FC01EE53FE4F84918823A9
:101EB00061F190E0880F991FFC01E057FE4FC5913A
:101EC000D491FC01E255FE4FA591B491611109C076
:101ED0009FB7F8948881209582238883EC912E23E4
:101EE0000BC0623061F49FB7F8943881822F8095DF
:101EF00083238883EC912E2B2C939FBF06C08FB732
:101F0000F894E8812E2B28838FBFDF91CF9108951D
:101F10008E3008F08E508770806480937C008091B2
:101F20007A00806480937A0080917A0086FDFCCFED
:101F3000809178002091790090E0922B08958F9203
:101F40009F92AF92BF92CF92DF92EF92FF926B017E
:101F50007C010E94410D4B015C01C114D104E104DC
:101F6000F104F1F00E94410DDC01CB0188199909BF
:101F7000AA09BB09883E9340A105B10570F321E091
:101F8000C21AD108E108F10888EE880E83E0981E95
:101F9000A11CB11CC114D104E104F10419F7DDCF77
:101FA000FF90EF90DF90CF90BF90AF909F908F9079
:101FB00008952FB7F89460913E0470913F0480918A
:101FC0004004909141042FBF08951F920F920FB6C5
:101FD0000F9211242F933F938F939F93AF93BF93AF
:101FE00080913E0490913F04A0914004B09141043F
:101FF00030913D0423E0230F2D3720F40196A11DDD
:10200000B11D05C026E8230F0296A11DB11D209326
:102010003D0480933E0490933F04A0934004B0930A
:1020200041048091420490914304A0914404B091F2
:1020300045040196A11DB11D809342049093430471
:10204000A0934404B0934504BF91AF919F918F91A9
:102050003F912F910F900FBE0F901F901895DC01AC
:10206000ED91FC910684F785E02D40E00994CF9333
:10207000DF93CDB7DEB728970FB6F894DEBF0FBE5B
:10208000CDBFFC011D8280E48E8394E19F8394E5A3
:10209000988719828A8380E18B8380E58C8387818E
:1020A000481710F04FEF480F908550E0DE01A40F65
:1020B000B51F903129F4843019F411969C9102C017
:1020C00015969C91690F6068CF0128960FB6F89419
:1020D000DEBF0FBECDBFDF91CF910C942F1061E01A
:1020E0000E942F108BE39FE10197F1F7089549E4D7
:1020F00055E0FA012FEF3FEF9E2F941B981788F4BD
:102100009191292798E0B901617077273695279535
:10211000672B21F061E0262760EA3627915099F776
:10212000EBCF922F832F08951092BD051092BC051E
:102130001092BB051092BA051092B9051092B8051D
:102140008DE991E09093BF058093BE059091AE0517
:10215000963108F057C02DEB30E03093B90520934D
:10216000B8052BE931E03093BB052093BA052CE28A
:1021700031E03093BD052093BC0520916800983074
:1021800050F031E09E3008F430E081E001C0880F6B
:102190003A95EAF701C084E0822B8093680098307A
:1021A00038F09E3040F0963148F020E030E008C032
:1021B0002DE630E005C02BE630E002C02CE630E032
:1021C0003093B6052093B505983030F481E001C016
:1021D000880F9A95EAF70EC0292F30E09E3018F448
:1021E0002850310902C02E50310981E001C0880F0A
:1021F0002A95EAF78093B7058091BE059091BF05B7
:102200000197F1F78091BC059091BD05892B21F1D3
:10221000809195049091960425E0823A9207E1F02E
:10222000009711F00E9470058091C0058E7F809309
:10223000C005109294041092930482EA95E0909362
:10224000960480939504E091B505F091B6059081D0
:102250008091B705892B808308951F93CF93DF93D7
:1022600000D000D0CDB7DEB710918905812F0E9434
:102270007710E12FF0E0E05CFA4F9187E1E0E10FA9
:10228000F0E0E05CFA4F81871E5F10938905809132
:102290004605823018F061E00E941C0F80914505D0
:1022A00040918905843028F4809140059091410542
:1022B00004C08091420590914305DC01ED91FC91B1
:1022C00050E00280F381E02D69E475E0099580918A
:1022D0004605823090F180914505843058F4809114
:1022E000400590914105DC01ED91FC910680F7815C
:1022F000E02D099580919D0590919E05A0919F05E7
:10230000B091A00589839A83AB83BC8389819A812C
:10231000AB81BC81AC01BD0141505109610971091A
:1023200049835A836B837C83892B8A2B8B2B71F790
:1023300060E0809146050E941C0F80914505843025
:1023400050F58091400590914105DC01ED91FC91A3
:102350000284F385E02D099597FFF3CF109289054C
:102360000E94D90F6093990570939A0580939B05FD
:1023700090939C0580918F05909190050196909384
:10238000900580938F050F900F900F900F90DF9125
:10239000CF911F9108958091420590914305DC01F2
:1023A000ED91FC910284F385E02D099597FFF3CF21
:1023B000D5CFCF93DF93EC0161E083E00E944C0F17
:1023C000209711F460E004C0CF3FD10531F461E003
:1023D00083E0DF91CF910C941C0FEDE9F1E0E491E3
:1023E000E330F9F048F4E130B9F0E230A1F584B51A
:1023F000806284BDC8BD34C0E730E9F0E83019F12F
:10240000E43049F580918000806280938000D09311
:102410008B00C0938A0024C084B5806884BDC7BD8A
:102420001FC080918000806880938000D0938900D5
:10243000C093880015C08091B00080688093B00080
:10244000C093B3000DC08091B00080628093B00053
:10245000C093B40005C0C038D1050CF0B8CFB2CFDE
:10246000DF91CF91089520919204909191042132AF
:1024700008F04AC080916E048111FCCF32E03093A5
:102480006E0431E030936D043FEF30936C04109292
:102490006B0420936A04A1E7B4E04AE454E0FA0133
:1024A0003E2F341B321718F43D913193F9CF10921F
:1024B000490420914904990F922B909349049091DB
:1024C0004804913061F4109248049091490490932B
:1024D000BB009091BC0093FDF8CF95EC01C095EE48
:1024E0009093BC0090916E049230E1F390916C0453
:1024F0009F3F79F080916C04803241F080916C04B0
:10250000803331F084E005C081E003C082E001C087
:1025100083E0109270041092920410926F04089558
:10252000CF92DF92EF92FF920F931F93CF93DF939F
:102530006B01770FEE08FF08F7FE1BC0EC016DE2A0
:102540000E94340E8C0144275527BA014C195D09AD
:102550006E097F092AE0CE010E94500E800F911F64
:10256000DF91CF911F910F91FF90EF90DF90CF906F
:1025700008952AE0B701A601DF91CF911F910F9135
:10258000FF90EF90DF90CF900C94500ECF93DF939D
:10259000EC01462F60E080914604909147040E9430
:1025A000371064E170E080E090E00E949F0FCE0160
:1025B000DF91CF910C942D068F929F92AF92BF9294
:1025C000CF92DF92EF92FF92CF93DF936B017C016A
:1025D0009B01AC010E94622C882319F06BED72E024
:1025E00027C046015701E894B7F82FEF3FEF4FE7B8
:1025F0005FE7C501B4010E94622C81110DC02FEF6D
:102600003FEF4FE75FE7C501B4010E94272A181684
:102610001CF46FED72E00CC02FEF3FEF4FE75FE46B
:10262000C701B6010E94862B181684F463EE72E08F
:1026300087E994E0DF91CF91FF90EF90DF90CF900A
:10264000BF90AF909F908F900C943B0E2FEF3FEF79
:102650004FE75FECC701B6010E94272A87FDE6CF4E
:1026600020E030E0A901C701B6010E94272A87FFB8
:102670000BC06DE287E994E00E94340EEC01F7FA9A
:10268000F094F7F8F09402C0C0E0D0E02AE037ED13
:1026900043EA5BE3C701B6010E94BB294B015C0121
:1026A0000E94A52A6B017C010E94D42A9B01AC01E7
:1026B000C501B4010E94BA294B015C012AE0B701AF
:1026C000A60187E994E00E94500EC80FD91F6EE260
:1026D00087E994E00E94340EC80FD91F20E030E053
:1026E00040E251E4C501B4010E948B2B4B015C0117
:1026F0000E94A52A6B01E12CF12C2AE0B701A6016A
:1027000087E994E00E94500EC80FD91FC701B60197
:102710000E94D42A9B01AC01C501B4010E94BA29D0
:1027200020E030E040E251E40E948B2B0E94A52A79
:10273000AB0160E070E02AE087E994E00E94500E6F
:102740008C0F9D1FDF91CF91FF90EF90DF90CF9086
:10275000BF90AF909F908F900895CF93DF93CDB7A8
:10276000DEB728970FB6F894DEBF0FBECDBF7894C2
:1027700084B5826084BD84B5816084BD85B5826086
:1027800085BD85B5816085BD80916E008160809337
:102790006E001092810080918100826080938100A0
:1027A00080918100816080938100809180008160B0
:1027B000809380008091B10084608093B10080910B
:1027C000B00081608093B00080917A008460809333
:1027D0007A0080917A00826080937A0080917A00FA
:1027E000816080937A0080917A00806880937A007B
:1027F0001092C10099E288E10FB6F894A8958093F1
:1028000060000FBE90936000A89561E082E00E9496
:102810004C0F60E082E00E941C0F61E083E00E94A8
:102820004C0F60E083E00E941C0F62E873E08CEFC5
:1028300093E00E94D1058091820390918303A0913F
:102840008403B09185038A3A9241A840B14709F4C4
:102850007CC064E171E082E090E00E94BA0562E130
:1028600071E086E090E00E94BA056CE873E088E0D1
:1028700090E00E949B056CE171E08CE090E00E948A
:10288000BA056AE171E08EE090E00E94BA0568E066
:1028900071E080E190E00E94BA056CE071E082E1B5
:1028A00090E00E94BA056AE071E084E190E00E9445
:1028B000BA0563E073E086E190E00E94BA0561E04A
:1028C00073E088E190E00E94BA056FEF72E08AE160
:1028D00090E00E94BA056BEF72E08CE190E00E94FC
:1028E000BA056DEF72E08EE190E00E94BA056EE0ED
:1028F00071E080E290E00E94BA0560E171E082E25E
:1029000090E00E94BA056EE073E08091140190910E
:1029100015010E949B0560E973E08091120190917E
:1029200013010E949B058AEA92E1A8E0B1E7809337
:10293000820390938303A0938403B093850362E89A
:1029400073E08CEF93E00E949B0564E171E082E00C
:1029500090E00E94860562E171E086E090E00E94CE
:1029600086056CE873E088E090E00E94D1056CE198
:1029700071E08CE090E00E9486056AE171E08EE0F3
:1029800090E00E94860568E071E080E190E00E949E
:1029900086056CE071E082E190E00E9486056AE0C5
:1029A00071E084E190E00E94860563E073E086E1D7
:1029B00090E00E94860561E073E088E190E00E946B
:1029C00086056FEF72E08AE190E00E9486056BEF6A
:1029D00072E08CE190E00E9486056DEF72E08EE17E
:1029E00090E00E9486056EE071E080E290E00E9437
:1029F000860560E171E082E290E00E9486056EE06B
:102A000073E080911401909115010E94D10560E955
:102A100073E080911201909113010E94D105809181
:102A20000E0390910F03A0911003B09111038093B6
:102A3000EF029093F002A093F102B093F20260E0F3
:102A40008BE00E944C0F61E087E00E944C0F60E039
:102A500087E00E941C0F61E081E00E944C0F61E062
:102A60008DE00E944C0F60E08DE00E941C0F62E040
:102A700085E00E944C0F62E084E00E944C0FE091E0
:102A8000A704F091A80482E08083E091A304F09170
:102A9000A4041082E091A504F091A60480E1808353
:102AA0001092AF04E091AB04F091AC0486E0808317
:102AB000E091A904F091AA04808180618083E09173
:102AC000A904F091AA04808188608083E091A90420
:102AD000F091AA04808180688083E091A904F0913C
:102AE000AA0480818F7D80830E9494108AE593E000
:102AF000909353038093520384E28093540302EA39
:102B000015E0109351030093500384E290E00E947B
:102B1000CC2C909356038093550310934305009358
:102B200042050E94941080914605823040F061E099
:102B30000E944C0F60E0809146050E941C0F80911E
:102B4000420590914305DC01ED91FC910284F385EF
:102B5000E02D099597FFF3CF1092890510928A0511
:102B600010929205109291051092900510928F0587
:102B700010928E0510928D0580911C019FEF980F89
:102B8000973F10F4809344056CE370E080E090E0A0
:102B90000E949F0F1092E9021092E80210927004B6
:102BA000109292040E94D8045524539427E2422E96
:102BB00038E2C32E31E0D32EEE24EA9444E0B42E62
:102BC00052E0A52E60E1962EFF24F39477E2872E43
:102BD00010E4612E00E8302E8FE3282E80911D0333
:102BE00081118AC0F0926F04809291041092700457
:102BF000109292040E943312811126C080921D030C
:102C000089E190E00E94CC2C8C01FC01138212829D
:102C1000D182C082108AE7861686118A438614867E
:102C2000158612861186B28AA38A548A958A20E272
:102C3000268B678A308E40E050E063E00E94660D8C
:102C40001093470400934604F0926F049FE3792E9B
:102C50002092910410927004109292040E943312F8
:102C60008111BCCF70921D0389E190E00E94CC2CB1
:102C70008C01DC0113961C921E9212971196DC9225
:102C8000CE9250961C9250971F96EC921F971E96CC
:102C90001C921E9751961C9251971B967C921B97E3
:102CA0001C961C921C971D961C921D971A961C929E
:102CB0001E9219975296BC9252975396AC92539784
:102CC0005496FC92549755969C92559780E256964E
:102CD0008C93569780E457968C93579780E8589634
:102CE0008C9340E050E063E0C8010E94660D1093B1
:102CF0004704009346046CCF8091460490914704AA
:102D0000DC01ED91FC910084F185E02D20E042E0B2
:102D100060E10995E0904604F090470468E4C7013B
:102D20000E942F1083E790E00197F1F700E011E097
:102D3000ABE9AA2EB12CB8E0DB2ED00EF8016191E0
:102D40008F01D701ED91FC910190F081E02DC70139
:102D50000995C5010197F1F7D012F0CF8091460493
:102D600090914704DC01ED91FC910484F585E02D00
:102D70006FEF09950E94F005082E000C990B9093B7
:102D80008B0380938A034E9709F05AC160ED77E078
:102D900080E090E00E949F0F0E94F005082E000C3A
:102DA000990B90938B0380938A034E9709F048C147
:102DB00081E080930D032091100130911101309337
:102DC0008803209387032AE030E030931101209399
:102DD00010018093EE02C0900E03D0900F03E0909C
:102DE0001003F0901103C092EA02D092EB02E0923D
:102DF000EC02F092ED02C701B60120E836E948E99D
:102E000050E00E948929298340E4842E42E4942ED4
:102E10004FE0A42EB12CA50194010E9489292A8398
:102E2000C701B601A50194010E94892950EA852EA7
:102E300056E8952EAA24A394B12CA50194010E94D2
:102E400089292B83C701B601A50194010E94892914
:102E5000E0E18E2EE7E29E2EA12CB12CA50194017B
:102E60000E9489292C83C701B601A50194010E9403
:102E70008929F8EE8F2EF3E09F2EA12CB12CA5010D
:102E800094010E9489292D83C701B601A5019401EF
:102E90000E94892924E630E040E050E00E94892920
:102EA0002F830E946E0668EE73E080E090E00E943F
:102EB0009F0F06E010E00E946E0641E0602F8091B7
:102EC0004604909147040E9437100E946D0B809336
:102ED0008603883239F0823309F471C08E3109F0EB
:102EE00093C00DC0015011090530110529F017FFDD
:102EF0008BC006E010E088C004E010E085C0E1E08F
:102F0000F0E0EC0FFD1FE00FF11F808190E00196D3
:102F10008A30910514F080E090E0E1E0F0E0EC0F01
:102F2000FD1FE00FF11F8083FC81ED81A981B0E0DE
:102F300020EA36E841E050E00E947E296B017C01E6
:102F40008A81282F30E0A0E1B7E20E94AB29C60EAB
:102F5000D71EE81EF91E2B8130E0A8EEB3E00E94D8
:102F6000AB29C60ED71EE81EF91E2F2F30E0A4E6AF
:102F7000B0E00E94AB29C60ED71EE81EF91E2E2F08
:102F800030E0AAE0B0E00E94AB29AB01BC014C0DDF
:102F90005D1D6E1D7F1D8F819A01AB01280F311DB4
:102FA000411D511DA4E6B0E00E947E296093EA0213
:102FB0007093EB028093EC029093ED0225C0809118
:102FC000EA029091EB02A091EC02B091ED028093A5
:102FD0000E0390930F03A0931003B09311038091FD
:102FE000460490914704FC0165816E7F65836860AB
:102FF0000E942F106EE073E08091140190911501F2
:103000000E949B050E945A0680910D03811153CFA7
:103010008091460490914704DC0115966C911597B8
:103020006E7F15966C9368600E942F101092EE02CE
:1030300080918703909188039093110180931001F0
:1030400040E060E080914604909147040E94371070
:1030500062E871E080914604909147040E94990EC5
:1030600041E060E080914604909147040E9437104F
:1030700063E971E080914604909147040E94990EA3
:1030800060ED77E080E090E00E949F0F8091460421
:10309000909147040E946F10A89540E060E08091F5
:1030A0004604909147040E94371064EA71E08091D1
:1030B0004604909147040E94990E41E060E080919F
:1030C0004604909147040E94371065EB71E08091AF
:1030D0004604909147040E94990E60EB74E080E0F2
:1030E00090E00E949F0F80914604909147040E94B7
:1030F0006F10A89540E060E08091460490914704ED
:103100000E94371066EC71E080914604909147046C
:103110000E94990E41E060E080914604909147043E
:103120000E94371067ED71E080914604909147044A
:103130000E94990E60EB74E080E090E00E949F0F87
:1031400080914604909147040E946F10A89540E03A
:1031500060E080914604909147040E94371068EE29
:1031600071E080914604909147040E94990E41E0DD
:1031700060E080914604909147040E94371069EF07
:1031800071E080914604909147040E94990E60EB93
:1031900074E080E090E00E949F0F8091460490913F
:1031A00047040E946F10A89561E08CE00E941C0FFC
:1031B00061E08CE00E944C0F6AE070E080E090E0FB
:1031C0000E949F0F60E08CE00E944C0F94E6292E35
:1031D000312C88E391E028E0822E880E8886C12C6D
:1031E000D12C7601C3940E94470884E00E94F30E1C
:1031F000892BD1F460911A0170911B01072E000CEC
:10320000880B990B0E94D62A9B01AC01609119038F
:1032100070911A0380911B0390911C030E94862BCE
:1032200087FF02C00C9469231092190110921801B3
:1032300080911801909119010E94080B6AE070E0DA
:1032400080E090E00E949F0F0E94D90F4B015C012B
:103250008091220390912303A0912403B091250330
:10326000A5019401281B390B4A0B5B0BDA01C9013C
:1032700080329340A105B10508F461C140E060E0EF
:1032800080914604909147040E9437108091F90282
:103290009091FA020A978A35910540F467EA72E044
:1032A00080914604909147040E94990E8091F90202
:1032B0009091FA020A9744F466EA72E0809146041B
:1032C000909147040E94990E6091F9027091FA0260
:1032D00080914604909147040E9490126EE372E040
:1032E00080914604909147040E94990E40E065E069
:1032F00080914604909147040E94371084E00E9418
:10330000F30E0091460410914704892BD1F460918B
:103310001A0170911B01072E000C880B990B0E945B
:10332000D62A9B01AC016091190370911A03809118
:103330001B0390911C030E94862B87FF02C00C94F4
:10334000012565EB72E0C8010E94990E84E00E949D
:10335000F30E892B41F061E472E080914604909174
:1033600047040E94990E60911A0170911B01072E6B
:10337000000C880B990B0E94D62A9B01AC0160912E
:10338000190370911A0380911B0390911C030E94F2
:10339000862B87FD08C063E472E08091460490911B
:1033A00047040E94990E40E06BE0809146049091A2
:1033B00047040E9437104090F3025090F40260904E
:1033C000F5027090F60220E030E04AE754E4C301D1
:1033D000B2010E94272A87FF02C00C943725409033
:1033E000F3025090F4026090F5027090F60220E033
:1033F00030E048EC52E4C301B2010E94272A87FF63
:1034000002C00C944D2520E030E040E251E4609190
:10341000F3027091F4028091F5029091F6020E94FD
:10342000272A87FF08C065EA72E0809146049091E0
:1034300047040E94990E6091F3027091F40280910A
:10344000F5029091F6020E949E2A80914604909186
:1034500047040E94901268E472E0809146049091C3
:1034600047040E94990E2091170380914604909181
:10347000470441E060E0222311F40C9463250E948C
:1034800037106AE472E080914604909147040E94EC
:10349000990E6091180170911901072E000C880B8C
:1034A000990B0E94D62A20E030E040E250E40E94CE
:1034B0002C2A0E949E2A6A30710544F467EA72E061
:1034C00080914604909147040E94990E60911801E2
:1034D00070911901072E000C880B990B0E94D62AB7
:1034E00020E030E040E250E40E942C2A0E949E2A14
:1034F00080914604909147040E94901262E572E028
:1035000080914604909147040E94990E81E0809337
:103510006F0485E2809391041092700410929204DB
:103520006AE084E395E00E94AB010E94331280922E
:10353000220390922303A0922403B092250380914A
:103540001703811106C064E670E080E090E00E94FD
:103550009F0F80910E0190910F01892B09F4DEC01D
:103560000E94D90F60931303709314038093150383
:103570009093160300917E0310917F0320918003A6
:1035800030918103DC01CB01801B910BA20BB30BAB
:10359000883B9B40A105B10508F4B6C28091F902B1
:1035A0009091FA0290935F0380935E038091F702FB
:1035B0009091F80290936103809360036091F3020D
:1035C0007091F4028091F5029091F6020E949E2A79
:1035D00070936303609362036091190370911A03FF
:1035E00080911B0390911C030E949E2A7093650397
:1035F0006093640380910E0390910F03A0911003D8
:10360000B091110380936E0390936F03A0937003A6
:10361000B093710380911C0180935A0385E08093DD
:103620005C038FE080935B0361E081E00E941C0FEC
:103630006FE070E080E090E00E949F0F61E087E023
:103640000E941C0FB090540380915003909151033D
:10365000DC01ED91FC910190F081E02D66E009958F
:103660008091500390915103DC01ED91FC91019008
:10367000F081E02D65E80995809150039091510308
:10368000DC01ED91FC910190F081E02D60915403FB
:10369000099500E010E02091540330E08091500340
:1036A000909151030217130794F4E0915203F091A3
:1036B0005303E00FF11F6081B626DC01ED91FC9110
:1036C0000190F081E02D09950F5F1F4FE4CFDC01E1
:1036D000ED91FC910190F081E02D6B2D099560E05A
:1036E00087E00E941C0F64E170E080E090E00E949F
:1036F0009F0F60E081E00E941C0F80911303909166
:103700001403A0911503B091160380937E03909348
:103710007F03A0938003B0938103F6C180911C01C5
:1037200090911D01909329038093280310922B03FD
:1037300010922A0310922D0310922C0310922F0343
:1037400010922E038091F9029091FA029093310326
:10375000809330038091F7029091F80290933303A5
:10376000809332036091F3027091F4028091F5022C
:103770009091F6020E94A52A70933503609334035A
:103780006091190370911A0380911B0390911C039F
:103790000E949E2A70933703609336031092390378
:1037A0001092380310923B0310923A0310923D039B
:1037B00010923C0310923F0310923E0380910E033F
:1037C00090910F03A0911003B091110390934103C6
:1037D00080934003B0934303A093420310924503A8
:1037E000109244031092470310924603109249032B
:1037F0001092480310924B0310924A0310924D030B
:1038000010924C0310924F0310924E0388E293E003
:1038100090938C0580938B0584E18093A105809122
:103820004505843028F4809140059091410504C0FD
:103830008091420590914305DC01ED91FC9100845B
:10384000F185E02D0995882309F43DC190918A0501
:10385000891769F080938A050E94D90F60939505B6
:103860007093960580939705909398052CC10E94BC
:10387000D90F0091950510919605209197053091EB
:103880009805DC01CB01801B910BA20BB30B0597B4
:10389000A105B10508F417C110928A05809146056B
:1038A000823018F060E00E941C0F10928905809110
:1038B0004505B12C843008F045C0809140059091B9
:1038C0004105DC01ED91FC910084F185E02D099525
:1038D000892B09F444C00091890510E080914005CE
:1038E00090914105DC01ED91FC910284F385E02D7E
:1038F0000995F801E05CFA4F8187809189058F5F17
:10390000809389058034C8F2BB24B394D6CF00914C
:10391000890510E08091420590914305DC01ED910D
:10392000FC910284F385E02D0995F801E05CFA4FE3
:103930008187809189058F5F80938905803410F09D
:10394000BB24B3948091420590914305DC01ED9135
:10395000FC910084F185E02D0995892BC1F68091B9
:103960008D0590918E05019690938E0580938D051F
:10397000BB2059F08091910590919205019690930A
:103980009205809391058DEF02C080918905809307
:10399000480587300CF497C0909149058091440503
:1039A000981391C080918905082F10E082500E94E1
:1039B0007710F801E05CFA4F278130E0322F2227A0
:1039C0004085242B8217930759F08091910590919F
:1039D0009205019690939205809391051FEF35C053
:1039E00020914A05E8E3F1E08191821711F40C94EB
:1039F000D62688848E12F8CF8091910590919205F9
:103A00000196909392058093910511E014C08091E6
:103A10004B0590E0982F882730914C05832B34E09C
:103A2000969587953A95E1F79091A105981710F032
:103A30000C941D2712E0205820934A0510934B0543
:103A400083E0809389050E942D11109348053BC0A7
:103A500080914B0590E0982F882720914C05822B70
:103A600020914D0530E0322F222740914E05242B26
:103A7000B901F3E076956795FA95E1F7E62FA9018C
:103A8000477055274115510511F0E1E0E60FE0932D
:103A90004B0563E060938905F0E0E05CFA4F138624
:103AA000E3E0280F391FF0E08217930711F00C9420
:103AB0003827E0938905452B21F081E08E0F809314
:103AC00089050E942D1120912603309127038091B2
:103AD0008F05909190052817390771F061E081E01A
:103AE0000E941C0F68E270E080E090E00E949F0F4F
:103AF00060E081E00E941C0F80918F0590919005FD
:103B000090932703809326030E94D90F6093130399
:103B100070931403809315039093160300919803F8
:103B20001091990320919A0330919B03DC01CB0102
:103B3000801B910BA20BB30B80389E4EA643B105A0
:103B400008F18091460490914704DC01ED91FC91CD
:103B50000084F185E02D20E042E060E1099581E0FC
:103B6000809312038091130390911403A091150385
:103B7000B09116038093980390939903A0939A03AE
:103B8000B0939B030E94D90F4B015C016093130318
:103B900070931403809315039093160380919403FC
:103BA00090919503A0919603B0919703A50194017C
:103BB000281B390B4A0B5B0BDA01C901883E934085
:103BC000A105B105B0F061E08DE00E941C0F6EE12F
:103BD00070E080E090E00E949F0F60E08DE00E9426
:103BE0001C0F8092940390929503A0929603B0923A
:103BF000970380911203882309F4A2C01092120344
:103C000019821A821B821C82BE016F5F7F4F8091D6
:103C10001401909115010E94D10549815A816B814F
:103C20007C8180910E0390910F03A0911003B091BD
:103C30001103481759076A077B0709F481C06EE032
:103C400073E080911401909115010E949B05809171
:103C5000900390919103A0919203B09193030196E8
:103C6000A11DB11D8093900390939103A0939203A3
:103C7000B093930360E973E0809112019091130176
:103C80000E949B058091900390919103A0919203D3
:103C9000B091930340918C0350918D0360918E03FA
:103CA00070918F03841B950BA60BB70B80399F4532
:103CB000A140B10508F444C0809114019091150110
:103CC0000A969093150180931401809112019091AE
:103CD00013010A96909313018093120164E171E03D
:103CE00082E090E00E94BA0562E171E086E090E037
:103CF0000E94BA058091900390919103A091920344
:103D0000B091930380938C0390938D03A0938E03C3
:103D1000B0938F036CE873E088E090E00E949B050D
:103D20006EE073E080911401909115010E949B0553
:103D300060E973E080911201909113010E949B054C
:103D40000E94F005082E000C990B90938B03809332
:103D50008A03C29729F481E080930D0310928903AE
:103D600080910D03882309F44BC40E94D90F6093FE
:103D700005037093060380930703909308038091D3
:103D800010019091110190938803809387039AE02A
:103D9000A92EB12C28E1722E88248394912C62E301
:103DA00070E080E090E00E949F0F80914604909127
:103DB00047040E946F10B0921101A09210018CE094
:103DC00090E00E942D068091890361E090E00E94BE
:103DD000C61268EC70E080E090E00E949F0F0E94A5
:103DE0006D0B809386038E3119F0883261F0F6C333
:103DF000809189038F5F8B3018F480938903EEC321
:103E000010928903EBC3E09189038E2F90E08B30F1
:103E1000910508F0E3C3FC01EC5CFF4F0C94AB2C64
:103E200010920D03DBC300911A0110911B018091C8
:103E30004604909147040E946F108091890360E0CE
:103E400090E00E94C61241E060E0809146049091AB
:103E500047040E943710B8018091460490914704AE
:103E60000E9490128091460490914704DC01ED91EC
:103E7000FC910190F081E02D61E0099567E672E028
:103E800080914604909147040E94990E0E946D0B08
:103E9000809386038E3179F08832B9F410931B0138
:103EA00000931A016AE171E08EE090E00E94BA0589
:103EB0000E945A060AC0083211053CF00F5F1F4FDE
:103EC0000B35110514F008E210E080910D0381110B
:103ED000AECF84C30091080110910901809146047E
:103EE000909147040E946F108091890360E090E0F8
:103EF0000E94C61241E060E0809146049091470420
:103F00000E943710B80180914604909147040E94A6
:103F100090126AE672E080914604909147040E94F4
:103F2000990E0E946D0B809386038E3179F0883252
:103F3000C9F4109309010093080168E071E080E181
:103F400090E00E94BA050E945A060CC0083EB3E0F9
:103F50001B0744F00C591F4F013FEAE01E0714F005
:103F600008EE13E080910D038111B8CF37C30091A3
:103F70000C0110910D0180914604909147040E941C
:103F80006F108091890360E090E00E94C61241E0CA
:103F900060E080914604909147040E9437100A30F7
:103FA000110540F467EA72E080914604909147045D
:103FB0000E94990EB80180914604909147040E9496
:103FC00090126DE672E080914604909147040E9441
:103FD000990E0E946D0B809386038E3119F0883202
:103FE00059F028C017FD26C00B5F1F4F0D33110578
:103FF0000CF100E010E01EC010930D0100930C01C5
:104000000115110529F410920B0110920A0104C048
:1040100090920B0180920A016AE071E084E190E0E5
:104020000E94BA056CE071E082E190E00E94BA055E
:104030000E945A0680910D0381119DCFCFC200913D
:104040001C0110911D0180914604909147040E942B
:104050006F108091890360E090E00E94C61241E0F9
:1040600061E080914604909147040E943710B801A6
:1040700080914604909147040E9490120E946D0B1B
:10408000809386038E3179F08832B9F410931D0144
:1040900000931C016CE171E08CE090E00E94BA0595
:1040A0000E945A060AC00A3011053CF00F5F1F4FEC
:1040B0000531110514F00AE010E080910D03811123
:1040C000C2CF8CC20091FB021091FC028091460489
:1040D000909147040E946F108091890360E090E006
:1040E0000E94C61241E061E080914604909147042D
:1040F0000E943710809146049091470410161106D3
:104100001CF463E772E00CC00115110519F467EAAD
:1041100072E006C00B3FFFEF1F0721F465E672E077
:104120000E94990EC801B5010E94972C582E692E45
:1041300080914604909147040E94901261E772E0DA
:1041400080914604909147040E94990E652D762D2A
:1041500077FF03C071956195710980914604909134
:1041600047040E94901265E772E0809146049091A6
:1041700047040E94990E0E946D0B809386038E3136
:1041800079F08832C1F41093FC020093FB026BEFCC
:1041900072E08CE190E00E94BA050E945A060BC0C2
:1041A0000E3C2FEF12073CF00B5F1F4F033311053E
:1041B00014F00EEC1FEF80910D03811187CF0EC21A
:1041C0000091FD021091FE028091460490914704F7
:1041D0000E946F108091890360E090E00E94C612F7
:1041E00041E061E080914604909147040E943710BD
:1041F0008091460490914704101611061CF463E761
:1042000072E00AC00115110519F467EA72E004C0F2
:1042100017FF04C065E672E00E94990EC801B5015F
:104220000E94972C77FF03C0719561957109809169
:104230004604909147040E94901261E772E08091D9
:104240004604909147040E94990EC801B5010E944E
:10425000972C97FF03C0919581959109BC0180919E
:104260004604909147040E94901269E772E08091A1
:104270004604909147040E94990E0E946D0B809312
:1042800086038E3179F08832C1F41093FE020093D8
:10429000FD026DEF72E08EE190E00E94BA050E948F
:1042A0005A060BC0063F3FEF13073CF00F5F1F4F4E
:1042B0000B30110514F006EF1FEF80910D038111F3
:1042C00083CF8CC100910E0110910F0180914604A3
:1042D000909147040E946F108091890360E090E004
:1042E0000E94C61241E060E080914604909147042C
:1042F0000E943710809146049091470401301105C7
:1043000019F464E872E002C061E972E00E94990E5B
:104310000E946D0B809386038E3179F08832B1F460
:1043200010930F0100930E016EE071E080E290E0C7
:104330000E94BA050E945A0609C017FD07C0012B4A
:1043400019F401E010E002C000E010E080910D03DC
:104350008111BCCF43C160E171E082E290E00E9434
:1043600086050091100110911101809146049091F1
:1043700047040E946F108091890360E090E00E94E2
:10438000C61241E061E080914604909147040E948A
:104390003710B80180914604909147040E94901212
:1043A0000E946D0B809386038E3199F08832F1F470
:1043B0001093110100931001109388030093870359
:1043C00060E171E082E290E00E94BA050E945A0624
:1043D0000DC017FD07C00F5F1F4F0B30110514F004
:1043E00000E010E0109311010093100180910D0383
:1043F0008111BBCFF3C08233F1F410920403109209
:104400000303109202031092010310920003109212
:10441000FF0263E073E086E190E00E94BA0561E08C
:1044200073E088E190E00E94BA056FEF72E08AE1E4
:1044300090E00E94BA0580910D03882309F4CEC054
:1044400080914604909147040E946F1080918903E7
:1044500060E090E00E94C61241E060E08091460476
:10446000909147040E9437106091030370910403F8
:1044700080914604909147040E9490126EE372E08E
:1044800080914604909147040E94990E8091010307
:1044900090910203B1010E94972C80914604909163
:1044A00047040E94901261E772E080914604909167
:1044B00047040E94990E8091010390910203B1017B
:1044C0000E94972CB5010E94972C809146049091F0
:1044D00047040E94901265E472E080914604909136
:1044E00047040E94990E6091FF0270910003809131
:1044F0004604909147040E94901268E472E0809113
:104500004604909147040E94990E0E946D0B80937F
:104510008603883209F06FCF10920D038CCF01E033
:1045200010E08EE0682E80914604909147040E942E
:104530006F108091890360E090E00E94C61241E014
:1045400060E080914604909147040E94371080916A
:104550004604909147040130110519F46EE972E0A8
:1045600002C069EA72E00E94990E0E946D0B80936E
:1045700086038E3119F0883249F02CC081E0013079
:10458000110509F480E0082F10E024C010920D03FB
:1045900001151105E9F41092820310928303109221
:1045A00084031092850362E873E08CEF93E00E942D
:1045B0009B050FB6F894A895709260000FBE6092AC
:1045C000600060ED77E080E090E00E949F0F02C005
:1045D00001E010E080910D038111A5CF8091460488
:1045E000909147040E946F1080910D038111D7CBE9
:1045F000809187039091880390931101809310011B
:1046000084E00E94F30E892B09F05FC000918A03B9
:1046100010918B030E311105E1F4809118019091F6
:1046200019010196909319018093180181E08093FC
:1046300017030E94D90F6093090370930A038093B4
:104640000B0390930C036FE070E080E090E00E9419
:104650009F0F8091180190911901883F910534F1C5
:1046600087EF90E0909319018093180108321105AB
:1046700061F58091180190911901019790931901AA
:104680008093180181E0809317030E94D90F6093F3
:10469000090370930A0380930B0390930C036FE05C
:1046A00070E080E090E00E949F0F03C00832110587
:1046B00001F38091180190911901089734F488E072
:1046C00090E090931901809318010E940E0D0C94B4
:1046D000F3180E942E0780910A0190910B01892BFB
:1046E00009F414C10E94D90F60931303709314034B
:1046F000809315039093160300911E0310911F03DE
:1047000020912003309121034B015C01801A910A12
:10471000A20AB30AA0910C01B0910D0120E63AEE75
:104720000E94B12C86169706A806B90608F4EEC0BA
:104730008091180190911901C3978638910508F06E
:10474000E5C0809117038111E1C01092F30210922D
:10475000F4021092F5021092F602809146049091B4
:1047600047040E946F1040E060E080914604909101
:1047700047040E9437106AE072E0809146049091ED
:1047800047040E94990E812C912C00E010E08AE0F1
:10479000A82EB12C6091080170910901072E000C20
:1047A000880B990B0E94D62A9B01AC016091F30201
:1047B0007091F4028091F5029091F6020E94272AEE
:1047C00087FF7CC0B0921901A0921801C5010E9418
:1047D000080B41E060E080914604909147040E94FC
:1047E00037106091180170911901072E000C880B89
:1047F000990B0E94D62A20E030E040E250E40E946B
:104800002C2A0E949E2A6A30710544F467EA72E0FD
:1048100080914604909147040E94990E609118017E
:1048200070911901072E000C880B990B0E94D62A53
:1048300020E030E040E250E40E942C2A0E949E2AB0
:1048400080914604909147040E9490126BE172E0BF
:1048500080914604909147040E94990E6AE070E0AE
:1048600080E090E00E949F0F0E9447084090F30272
:104870005090F4026090F5027090F602B801012E9B
:10488000000C880B990B0E94D62A9B01AC01C30136
:10489000B2010E94862B18164CF4C301B2010E948B
:1048A0009E2A8B01809018019090190125E0A20E9C
:1048B000B11C3AEFA316B10409F06CCFB801110F87
:1048C000880B990B0E94D62A6093F3027093F4022E
:1048D0008093F5029093F60290921901809218014C
:1048E00064EF71E080E090E00E949F0F80911303DD
:1048F00090911403A0911503B091160380931E03A9
:1049000090931F03A0932003B09321038091180379
:10491000882311F40C94181980914604909147044F
:104920000E946F1040E060E080914604909147043F
:104930000E9437106EE172E0809146049091470426
:104940000E94990E41E060E08091460490914704F6
:104950000E9437106EE272E0809146049091470405
:104960000E94990E80919C038530B8F588E090E014
:10497000909319018093180181E090E090931701C2
:104980008093160188E090E00E94080B00E110E09F
:1049900068EE73E080E090E00E949F0FA8950150C0
:1049A0001109B1F761E08CE00E941C0F61E08CE01E
:1049B0000E944C0F6AE070E080E090E00E949F0F40
:1049C00060E08CE00E944C0F1092180380919C03D1
:1049D0008F5F80939C030C94181910921901109208
:1049E000180180E090E00E94080B0FB6F894A8959B
:1049F00080916000886180936000109260000FBE1B
:104A0000FFCF8091F7029091F802883E93402CF4FA
:104A100067EA72E0C8010E94990E8091F7029091B6
:104A2000F802B1010E94972C8091460490914704AE
:104A30000E94901261E772E08091460490914704D1
:104A40000E94990E8091F7029091F802B1010E94A4
:104A5000972C6AE070E00E94972C80914604909118
:104A600047040E94901265E472E00C94CD1920E096
:104A700030E046EC52E4C301B2010E94862B1816C6
:104A800014F00C94EF1967EA72E08091460490915B
:104A900047040E94990E0C94EF1920E030E040E1A9
:104AA00051E4C301B2010E94862B181614F00C9435
:104AB000031A66EA72E080914604909147040E94CE
:104AC000990E0C94031A0E94371080910E03909156
:104AD0000F03A0911003B091110380389649A849A3
:104AE000B10540F467EA72E0809146049091470472
:104AF0000E94990E80910E0390910F03A0911003D4
:104B0000B091110380349244AF40B10540F467EA9C
:104B100072E080914604909147040E94990E809122
:104B20000E0390910F03A0911003B0911103803AEE
:104B30009648A140B10540F467EA72E080914604CE
:104B4000909147040E94990E80910E0390910F035B
:104B5000A0911003B091110380319742A105B105D6
:104B600040F467EA72E080914604909147040E9405
:104B7000990E60910E0370910F0380911003909134
:104B80001103B8EE4B2EB3E05B2E612C712CA30108
:104B900092010E948929BA01A9012AE08091460464
:104BA000909147040E94500E61E772E080914604A4
:104BB000909147040E94990E60910E0370910F032B
:104BC0008091100390911103A30192010E94892901
:104BD000643671058105910540F46AE572E08091C3
:104BE0004604909147040E94990E60910E037091C3
:104BF0000F03809110039091110328EE33E040E001
:104C000050E00E9489292AE030E040E050E00E9414
:104C10008929BA01A9012AE08091460490914704AC
:104C20000E94500E6CE572E080914604909147041A
:104C30000E94990E41E06BE08091460490914704F8
:104C40000E9437104090190350901A0360901B0384
:104C500070901C0320E030E048EC52E4C301B20144
:104C60000E94272A87FF12C020E030E040E151E493
:104C7000C301B2010E94862B181644F467EA72E061
:104C800080914604909147040E94990E4090190328
:104C900050901A0360901B0370901C0320E030E0DA
:104CA00040E251E4C301B2010E94272A87FF11C0EC
:104CB00020E030E0A901C301B2010E94862B87FDEC
:104CC00008C066EA72E080914604909147040E9411
:104CD000990E4090190350901A0360901B03709036
:104CE0001C0320E030E0A901C301B2010E94272A81
:104CF0000091460410914704181654F420E030E067
:104D000040EF52E4C301B2010E94862B181674F4DE
:104D100041E06BE0C8010E94371063E672E08091C9
:104D20004604909147040E94990E07C0C301B20146
:104D30000E949E2AC8010E94901280914604909180
:104D40004704DC01ED91FC910190F081E02D61E0E0
:104D5000099567E672E080914604909147040E94AD
:104D6000990E81E080936F0485E280939104109204
:104D70007004109292046091100184E395E00E9407
:104D8000AB010E94331280911001909111012AE031
:104D900030E0281B390B49E1429FC001439F900D31
:104DA000112405960E94D9110C94971A822F90E035
:104DB000FC013197E031F10508F03FC0E15CFF4FA5
:104DC0000C94AB2C80914B0590E0982F8827309164
:104DD0004C05832B54E0969587955A95E1F74091C1
:104DE0004D0550E0542F442730914E05432B74E07D
:104DF000569547957A95E1F71CC080914B0590E058
:104E0000982F882730914C05832B0C94141D80918A
:104E10004D0590E0982F882730914E05AC01432B2B
:104E200090914B05892F90E0982F882730914C0561
:104E3000832B840F951F0C94141D0E94D90F60932F
:104E4000990570939A0580939B0590939C05109209
:104E50004805E0914A058E2F90E0FC013197E03142
:104E6000F10510F00C94631DE15BFF4F0C94AB2C2B
:104E7000DC0163E0B695A7956A95E1F7AE7FB17066
:104E8000A85DBC4F0D90BC91A02D682F6F7002C023
:104E9000B695A7956A95E2F76E2F70E0A0FF14C053
:104EA000DB01A05CBA4F19966C9119974601570126
:104EB0000F2E04C0880C991CAA1CBB1C0A94D2F7A4
:104EC000862A19968C9215C0DB01A05CBA4F460168
:104ED00057010F2E04C0880C991CAA1CBB1C0A94F5
:104EE000D2F7809419967C911997682D67231996AB
:104EF0006C93FF5FF83010F0EF5FF0E001960C94D8
:104F0000541D20914B0530E0322F222780914C0513
:104F1000282B422F80914D0590E0982F88273091C3
:104F20004E05832B382F330F30934B0553E09927D1
:104F3000820F911D62E0650F242F30E0281739079A
:104F4000ACF4220F331FF901E85DFC4F2081318161
:104F5000E52FF0E0E05CFA4F31875F5FE52FF0E08E
:104F6000E05CFA4F21874F5F562FE4CF50938905BD
:104F70000C94611D80914B0590E0982F882720911B
:104F80004C05822BFC01A4E0F695E795AA95E1F784
:104F90008F7090914D05FF27EE0FFF1FE85DFC4FCE
:104FA0009F3F81F4A701960104C0220F331F441FC5
:104FB000551F8A95D2F7DA01C90120813181822BF0
:104FC000932B11C04601570104C0880C991CAA1CE0
:104FD000BB1C8A95D2F7D501C4018095909520819C
:104FE0003181822393239183808386E00C945F1D1B
:104FF000E0914C05F0E0EE0FFF1FE85DFC4F809163
:105000004D0590E0982F882720914E05822BEBCFFD
:1050100080914B0590E0982F882720914C05822B9A
:1050200020914D0530E0322F222740914E05242B50
:10503000280F391FA0E0B7E082179307B1F2682F5D
:105040006F70EB2FF0E0E05CFA4F418550E00A2EE4
:1050500002C0559547950A94E2F7FC0114E0F695D5
:10506000E7951A95E1F7FF27EE0FFF1FE85DFC4F6C
:105070004601570104C0880C991CAA1CBB1C6A95E8
:10508000D2F740FF07C040815181842A952A91823E
:1050900080820AC0B501A40140955095608171815C
:1050A0004623572351834083AF5FA83010F0BF5F82
:1050B000A0E00196C1CF20914C0570914E05109251
:1050C0004D0586E08093890530E0220F331F40E0D4
:1050D00050E060E0671711F40C94611DFA01E05C88
:1050E000FA4F808990E0982F8827E1898E2BFA016A
:1050F000E20FF31FE85DFC4F918380836F5F4E5F8B
:105100005F4FE8CF88E691E09093A3058093A205D6
:1051100082EA95E00C94700510929A04109299041A
:1051200088EE93E0A0E0B0E080939B0490939C0411
:10513000A0939D04B0939E0424E431E0309398043E
:105140002093970425EC30E03093A4042093A3042B
:1051500024EC30E03093A6042093A50420EC30E04A
:105160003093A8042093A70421EC30E03093AA04E4
:105170002093A90422EC30E03093AC042093AB04DC
:1051800026EC30E03093AE042093AD041092B004CE
:105190001092B1041092B2041092B3041092370529
:1051A000109236058093380590933905A0933A05FF
:1051B000B0933B0526E531E0309335052093340567
:1051C0001092A5051092A4058093A6059093A705BB
:1051D000A093A805B093A90588E691E09093A30554
:1051E0008093A2051092B9051092B8051092BB05E4
:1051F0001092BA051092BD051092BC051092BF0521
:105200001092BE056091C0056E7F6D7F6093C005F2
:105210006695617081E0682786E00E941C0F61E05E
:1052200086E00E944C0FECEDF1E0E491E093B205D2
:10523000E8ECF1E0E491F0E0EE0FFF1FE255FE4FE5
:10524000859194919093B4058093B30560E088E0D4
:105250000E944C0F8091C00581FD04C061E088E090
:105260000E941C0F88E08093AE05EEEDF1E0E49122
:10527000E093AF05EAECF1E0E491F0E0EE0FFF1F00
:10528000E854FE4F859194919093B1058093B005B9
:1052900080911C018093440584E08093450587E05C
:1052A0008093460588EE93E0909394058093930550
:1052B00010929D0510929E0510929F051092A005D8
:1052C0000895FB01DC0105900D920020E1F708959F
:1052D000F999FECF92BD81BDF89A992780B50895BE
:1052E000262FF999FECF1FBA92BD81BD20BD0FB602
:1052F000F894FA9AF99A0FBE019608950E94AB2984
:10530000A59F900DB49F900DA49F800D911D112419
:105310000895A1E21A2EAA1BBB1BFD010DC0AA1FF6
:10532000BB1FEE1FFF1FA217B307E407F50720F00E
:10533000A21BB30BE40BF50B661F771F881F991F89
:105340001A9469F760957095809590959B01AC01D2
:10535000BD01CF010895A29FB001B39FC001A39FDB
:10536000700D811D1124911DB29F700D811D11249E
:10537000911D08955058BB27AA270E94D2290C944A
:105380004C2B0E943E2B38F00E94452B20F039F424
:105390009F3F19F426F40C943B2B0EF4E095E7FBA9
:1053A0000C94352BE92F0E945D2B58F3BA17620736
:1053B00073078407950720F079F4A6F50C947F2BEA
:1053C0000EF4E0950B2EBA2FA02D0B01B901900120
:1053D0000C01CA01A0011124FF27591B99F0593F64
:1053E00050F4503E68F11A16F040A22F232F342FAC
:1053F0004427585FF3CF469537952795A795F040FA
:105400005395C9F77EF41F16BA0B620B730B840B0E
:10541000BAF09150A1F0FF0FBB1F661F771F881FC6
:10542000C2F70EC0BA0F621F731F841F48F487951E
:1054300077956795B795F7959E3F08F0B0CF939510
:10544000880F08F09927EE0F9795879508950E9489
:10545000112B08F481E008950E94402A0C944C2BF3
:105460000E94452B58F00E943E2B40F029F45F3FEC
:1054700029F00C94352B51110C94802B0C943B2B60
:105480000E945D2B68F39923B1F3552391F3951B8B
:10549000550BBB27AA2762177307840738F09F5F55
:1054A0005F4F220F331F441FAA1FA9F335D00E2EC2
:1054B0003AF0E0E832D091505040E695001CCAF72F
:1054C0002BD0FE2F29D0660F771F881FBB1F2617F2
:1054D00037074807AB07B0E809F0BB0B802DBF01C9
:1054E000FF2793585F4F3AF09E3F510578F00C9498
:1054F000352B0C94802B5F3FE4F3983ED4F38695D4
:1055000077956795B795F7959F5FC9F7880F911DB8
:105510009695879597F90895E1E0660F771F881FA4
:10552000BB1F621773078407BA0720F0621B730B57
:10553000840BBA0BEE1F88F7E09508950E94A52A08
:105540006894B1110C94802B08950E94652B88F00B
:105550009F5798F0B92F9927B751B0F0E1F0660F37
:10556000771F881F991F1AF0BA95C9F714C0B13078
:1055700091F00E947F2BB1E008950C947F2B672F50
:10558000782F8827B85F39F0B93FCCF386957795A7
:105590006795B395D9F73EF4909580957095619590
:1055A0007F4F8F4F9F4F0895E89409C097FB3EF4BB
:1055B00090958095709561957F4F8F4F9F4F992360
:1055C000A9F0F92F96E9BB279395F69587957795DE
:1055D0006795B795F111F8CFFAF4BB0F11F460FF9E
:1055E0001BC06F5F7F4F8F4F9F4F16C0882311F0F6
:1055F00096E911C0772321F09EE8872F762F05C00A
:10560000662371F096E8862F70E060E02AF09A95A4
:10561000660F771F881FDAF7880F9695879597F999
:105620000895990F0008550FAA0BE0E8FEEF161633
:105630001706E807F907C0F012161306E407F50786
:1056400098F0621B730B840B950B39F40A2661F0FA
:10565000232B242B252B21F408950A2609F4A1409D
:10566000A6958FEF811D811D089597F99F6780E8AA
:1056700070E060E008959FEF80EC089500240A94A4
:105680001616170618060906089500240A9412161D
:105690001306140605060895092E0394000C11F450
:1056A000882352F0BB0F40F4BF2B11F460FF04C0FD
:1056B0006F5F7F4F8F4F9F4F089557FD9058440F56
:1056C000551F59F05F3F71F04795880F97FB991F61
:1056D00061F09F3F79F0879508951216130614061E
:1056E000551FF2CF4695F1DF08C0161617061806AB
:1056F000991FF1CF86957105610508940895E89486
:10570000BB2766277727CB0197F908950E94112BB5
:1057100008F48FEF08950E949E2B0C944C2B0E944E
:105720003E2B38F00E94452B20F0952311F00C946D
:10573000352B0C943B2B11240C94802B0E945D2B59
:1057400070F3959FC1F3950F50E0551F629FF001D4
:10575000729FBB27F00DB11D639FAA27F00DB11DED
:10576000AA1F649F6627B00DA11D661F829F222776
:10577000B00DA11D621F739FB00DA11D621F839FFD
:10578000A00D611D221F749F3327A00D611D231FD3
:10579000849F600D211D822F762F6A2F11249F5721
:1057A00050409AF0F1F088234AF0EE0FFF1FBB1F24
:1057B000661F771F881F91505040A9F79E3F5105E3
:1057C00080F00C94352B0C94802B5F3FE4F3983ED3
:1057D000D4F3869577956795B795F795E7959F5F8D
:1057E000C1F7FE2B880F911D9695879597F908951F
:1057F0000E94652BE8F09E37E8F09639B8F49E38A1
:1058000048F4672F782F8827985FF9CF869577958A
:10581000679593959539D0F3B62FB1706B0F711DC5
:10582000811D20F487957795679593950C94672C47
:105830000C94822C0C94802B19F416F40C943B2BB2
:105840000C94822C0E94652BB8F39923C9F3B6F30C
:105850009F57550B87FF0E94902C0024A0E640EA3A
:10586000900180585695979528F4805C660F771FB5
:10587000881F20F026173707480730F4621B730B88
:10588000840B202931294A2BA695179407942025AB
:1058900031254A2758F7660F771F881F20F02617F3
:1058A0003707480730F4620B730B840B200D311D52
:1058B000411DA09581F7B901842F9158880F9695C5
:1058C000879508950E94112B880B990B08958823C2
:1058D00071F4772321F09850872B762F07C0662329
:1058E00011F499270DC09051862B70E060E02AF0EA
:1058F0009A95660F771F881FDAF7880F9695879518
:1059000097F908959F3F31F0915020F4879577954E
:105910006795B795880F911D9695879597F9089586
:1059200091505040660F771F881FD2F7089597FB5C
:10593000072E16F4009407D077FD09D00E94B82CEA
:1059400007FC05D03EF4909581959F4F0895709582
:1059500061957F4F0895EE0FFF1F0590F491E02DA4
:1059600009940E94AB29B7FF0895821B930B0895F9
:10597000AA1BBB1B51E107C0AA1FBB1FA617B70775
:1059800010F0A61BB70B881F991F5A95A9F7809591
:105990009095BC01CD010895CF93DF93823091059E
:1059A00010F482E090E0E091C305F091C40520E09E
:1059B00030E0C0E0D0E0309711F1408151814817CC
:1059C0005907C0F04817590761F4828193812097E5
:1059D00019F09B838A832BC09093C4058093C305E1
:1059E00026C02115310519F04217530718F49A0102
:1059F000BE01DF01EF010280F381E02DDCCF211534
:105A0000310509F1281B390B2430310590F4129629
:105A10008D919C9113976115710521F0FB01938382
:105A2000828304C09093C4058093C305FD01329620
:105A300044C0FD01E20FF31F81939193225031097D
:105A40002D933C933AC02091C1053091C205232B80
:105A500041F420912001309121013093C20520931F
:105A6000C10520911E0130911F012115310541F41E
:105A70002DB73EB74091220150912301241B350BD5
:105A8000E091C105F091C205E217F307A0F42E1BC7
:105A90003F0B2817390778F0AC014E5F5F4F241792
:105AA000350748F04E0F5F1F5093C2054093C10564
:105AB0008193919302C0E0E0F0E0CF01DF91CF91BC
:105AC00008950F931F93CF93DF93009709F48CC031
:105AD000FC013297138212820091C3051091C40514
